:100969001408004000F900240030001900120002A8
:0609790000F80000001070
:10092B00E4FDFCD3ED9FEC9E5015E4FBFA0BBB00F2
:0F093B00010AEB64334A70F50DBD00010C80E436
:01094A00228A
:100980008E2C8F2DEF25E02408F808E6F5A07F01D6
:050990007E0002092BAE
:1008000020B21530B2FD0525E52570020524640AE5
:1008100045247004F524F52520B31530B3FD0527D4
:10082000E52770020526640A45267004F526F5279B
:1008300020B41530B4FD0529E52970020528640AA5
:1008400045287004F528F52920B51530B5FD052B90
:10085000E52B7002052A640A452A7004F52AF52B57
:10086000D293C290C292C291AF25AE24120980D217
:1008700092C293C291C290AF27AE26120980D29144
:10088000C293C290C292AF29AE28120980D290C200
:0F08900093C292C291AF2BAE2A120980020800C8
:10094B00E4F52AF52BF528F529F526F527F524F5F9
:0E095B0025D2B5D2B4D2B3D2B212080080FBBE
:0300000002089F54
:0C089F00787FE4F6D8FD75812D0208E694
:1008AB0002094BE493A3F8E493A34003F68001F20F
:1008BB0008DFF48029E493A3F85407240CC8C3334E
:1008CB00C4540F4420C8834004F456800146F6DF1D
:1008DB00E4800B0102040810204080900969E47E3B
:1008EB00019360BCA3FF543F30E509541FFEE49312
:1008FB00A360010ECF54C025E060A840B8E493A3D9
:10090B00FAE493A3F8E493A3C8C582C8CAC583CA03
:10091B00F0A3C8C582C8CAC583CADFE9DEE780BEBB
:01097F000077
:00000001FF
